{
	"data": {
		"bytecode": {
			"linkReferences": {},
			"object": "6080604052336000806101000a81548173ffffffffffffffffffffffffffffffffffffffff021916908373ffffffffffffffffffffffffffffffffffffffff16021790555034801561005057600080fd5b50611ad7806100606000396000f3fe608060405234801561001057600080fd5b50600436106100575760003560e01c8063018db78e1461005c57806325c7fcdf1461007a5780633dcdb67214610096578063a1d5ecaf146100a0578063d9e78169146100be575b600080fd5b6100646100da565b604051610071919061140d565b60405180910390f35b610094600480360381019061008f9190611463565b6100e0565b005b61009e61019e565b005b6100a8610320565b6040516100b5919061140d565b60405180910390f35b6100d860048036038101906100d391906116f4565b610358565b005b61012c81565b60008054906101000a900473ffffffffffffffffffffffffffffffffffffffff1673ffffffffffffffffffffffffffffffffffffffff163373ffffffffffffffffffffffffffffffffffffffff161461013857600080fd5b60048054906101000a900460ff161561015057600080fd5b816002819055508060038190555060016004806101000a81548160ff0219169083151502179055506000600460006101000a81548163ffffffff021916908363ffffffff1602179055505050565b60008054906101000a900473ffffffffffffffffffffffffffffffffffffffff1673ffffffffffffffffffffffffffffffffffffffff163373ffffffffffffffffffffffffffffffffffffffff16146101f657600080fd5b60048054906101000a900460ff1661020d57600080fd5b6000610217610320565b905060006004806101000a81548160ff02191690831515021790555060005b600460009054906101000a900463ffffffff1663ffffffff1681101561031c57600061012c6103e8846102699190611751565b61027391906117c2565b905060018281548110610289576102886117f3565b5b9060005260206000200160009054906101000a900473ffffffffffffffffffffffffffffffffffffffff1673ffffffffffffffffffffffffffffffffffffffff166108fc829081150290604051600060405180830381858888f193505050501580156102f9573d6000803e3d6000fd5b5080836103069190611822565b925050808061031490611856565b915050610236565b5050565b600060048054906101000a900460ff1661033d5760009050610355565b60035447101561034f57479050610355565b60035490505b90565b60048054906101000a900460ff166103a5576040517f08c379a000000000000000000000000000000000000000000000000000000000815260040161039c906118fb565b60405180910390fd5b6000600267ffffffffffffffff8111156103c2576103c16114b9565b5b6040519080825280602002602001820160405280156103f05781602001602082028036833780820191505090505b5090506080600254901c8160008151811061040e5761040d6117f3565b5b6020026020010181815250506fffffffffffffffffffffffffffffffff6002541681600181518110610443576104426117f3565b5b602002602001018181525050600061045b82846105a0565b1461049b576040517f08c379a000000000000000000000000000000000000000000000000000000000815260040161049290611967565b60405180910390fd5b336001600460009054906101000a900463ffffffff1663ffffffff16815481106104c8576104c76117f3565b5b9060005260206000200160006101000a81548173ffffffffffffffffffffffffffffffffffffffff021916908373ffffffffffffffffffffffffffffffffffffffff1602179055507fa33dc8451463751c13b48a16b7e46d5f7b9e7e450787b8f0b0fe1c66ecc7a24e33600460009054906101000a900463ffffffff166040516105539291906119e7565b60405180910390a16004600081819054906101000a900463ffffffff168092919061057d90611a10565b91906101000a81548163ffffffff021916908363ffffffff160217905550505050565b6000807f30644e72e131a029b85045b68181585d2833e84879b9709143e1f593f0000001905060006105d0610737565b9050806080015151600186516105e69190611a3c565b146105f057600080fd5b60006040518060400160405280600081526020016000815250905060005b86518110156106a9578387828151811061062b5761062a6117f3565b5b60200260200101511061063d57600080fd5b6106948261068f85608001516001856106569190611a3c565b81518110610667576106666117f3565b5b60200260200101518a8581518110610682576106816117f3565b5b6020026020010151610bb3565b610c55565b915080806106a190611856565b91505061060e565b506106d38183608001516000815181106106c6576106c56117f3565b5b6020026020010151610c55565b9050610719856000015186602001516106eb84610d1d565b85604001516106fd8a60400151610d1d565b876060015161070f8960000151610d1d565b8960200151610dc2565b6107295760019350505050610731565b600093505050505b92915050565b61073f6112e5565b60405180604001604052807f2e955c2d3025af3e942c6df956c2d19a726ebfaf126a3864598679271fc4d78181526020017f0594d26b723e82f273d63deccbf8427265c92fc7029ec8cd36426d7e9b8f85f48152508160000181905250604051806040016040528060405180604001604052807f2a662553bfe8f8020a89a0e1a5856051b7d69715a109cb94759a8c815eae07e581526020017f1c0de20b0b9a57237f8aa2ad0d0558879426fbeb864048fb84c4902fef76b1b4815250815260200160405180604001604052807f04c15a0b12f979a9e798b4b99ebdc09578f2a41203115e38de69748e4bd7af1281526020017f2b634b2e6e9c7be2c08a578239608e20b9a62c032a76d5326e845962aafef9198152508152508160200181905250604051806040016040528060405180604001604052807f1d0e82748995d8eea1305d20a4eb506348cad619e2029dc829a0fd2754eb915381526020017f2746a21cad55097d6723a8b7d328d69380cb2f6308969399649d05db0ffe4b02815250815260200160405180604001604052807f019e694f50df527216d617e0215fbcad55f737d8d61cd006acf622891cc096ef81526020017f13f4442e9339bec5cca36d6b149e2b85d42255c486e411d1c89fb55207f1c2268152508152508160400181905250604051806040016040528060405180604001604052807f25b43a264152589039d362a8b9014c03bf1fd3dc2daccd26699b06e5c10667fb81526020017f05cb638478bba7516f218832063c84e3622c098899e361c8fad7198a785c2c09815250815260200160405180604001604052807f0ea656717fa31708fd9e685178f16e269be94e29cce813e9bf480ad8a1d3433781526020017f02fbd4ab3bcb20a1db8cadf5698714a4ec089ab60a7ec8630536aea74d6b257c8152508152508160600181905250600367ffffffffffffffff811115610a0657610a056114b9565b5b604051908082528060200260200182016040528015610a3f57816020015b610a2c61132c565b815260200190600190039081610a245790505b50816080018190525060405180604001604052807f1d7126e66426aa081664090ea7b8842f7e78a9be2f6cd1f9cfb0f8954132af3881526020017f210405bb3ac7dabbf74c73c370678eb7916d77b88016c0e71e01a0da1d09463b8152508160800151600081518110610ab557610ab46117f3565b5b602002602001018190525060405180604001604052807f1794b8fc53bd77f1b1d1c89624d82a036f228e80bada1ed573c8596accfe483581526020017f13854a332b1626863a095ba6349758873071948d5f610df709c9a4df8968a3948152508160800151600181518110610b2d57610b2c6117f3565b5b602002602001018190525060405180604001604052807f24dc7542ed7d6eba0242feac682e3864c17bd2374bdfa1d5ce6b26aeb20e15ca81526020017f06f58751bca94452057d979c78e75c6ab19263753d66b494c427887387e95cb78152508160800151600281518110610ba557610ba46117f3565b5b602002602001018190525090565b610bbb61132c565b610bc3611346565b836000015181600060038110610bdc57610bdb6117f3565b5b602002018181525050836020015181600160038110610bfe57610bfd6117f3565b5b6020020181815250508281600260038110610c1c57610c1b6117f3565b5b602002018181525050600060608360808460076107d05a03fa90508060008103610c4257fe5b5080610c4d57600080fd5b505092915050565b610c5d61132c565b610c65611368565b836000015181600060048110610c7e57610c7d6117f3565b5b602002018181525050836020015181600160048110610ca057610c9f6117f3565b5b602002018181525050826000015181600260048110610cc257610cc16117f3565b5b602002018181525050826020015181600360048110610ce457610ce36117f3565b5b602002018181525050600060608360c08460066107d05a03fa90508060008103610d0a57fe5b5080610d1557600080fd5b505092915050565b610d2561132c565b60007f30644e72e131a029b85045b68181585d97816a916871ca8d3c208c16d87cfd47905060008360000151148015610d62575060008360200151145b15610d86576040518060400160405280600081526020016000815250915050610dbd565b604051806040016040528084600001518152602001828560200151610dab9190611a70565b83610db69190611822565b8152509150505b919050565b600080600467ffffffffffffffff811115610de057610ddf6114b9565b5b604051908082528060200260200182016040528015610e1957816020015b610e0661132c565b815260200190600190039081610dfe5790505b5090506000600467ffffffffffffffff811115610e3957610e386114b9565b5b604051908082528060200260200182016040528015610e7257816020015b610e5f61138a565b815260200190600190039081610e575790505b5090508a82600081518110610e8a57610e896117f3565b5b60200260200101819052508882600181518110610eaa57610ea96117f3565b5b60200260200101819052508682600281518110610eca57610ec96117f3565b5b60200260200101819052508482600381518110610eea57610ee96117f3565b5b60200260200101819052508981600081518110610f0a57610f096117f3565b5b60200260200101819052508781600181518110610f2a57610f296117f3565b5b60200260200101819052508581600281518110610f4a57610f496117f3565b5b60200260200101819052508381600381518110610f6a57610f696117f3565b5b6020026020010181905250610f7f8282610f8f565b9250505098975050505050505050565b60008151835114610f9f57600080fd5b6000835190506000600682610fb49190611751565b905060008167ffffffffffffffff811115610fd257610fd16114b9565b5b6040519080825280602002602001820160405280156110005781602001602082028036833780820191505090505b50905060005b8381101561128557868181518110611021576110206117f3565b5b60200260200101516000015182600060068461103d9190611751565b6110479190611a3c565b81518110611058576110576117f3565b5b602002602001018181525050868181518110611077576110766117f3565b5b6020026020010151602001518260016006846110939190611751565b61109d9190611a3c565b815181106110ae576110ad6117f3565b5b6020026020010181815250508581815181106110cd576110cc6117f3565b5b6020026020010151600001516001600281106110ec576110eb6117f3565b5b60200201518260026006846111019190611751565b61110b9190611a3c565b8151811061111c5761111b6117f3565b5b60200260200101818152505085818151811061113b5761113a6117f3565b5b60200260200101516000015160006002811061115a576111596117f3565b5b602002015182600360068461116f9190611751565b6111799190611a3c565b8151811061118a576111896117f3565b5b6020026020010181815250508581815181106111a9576111a86117f3565b5b6020026020010151602001516001600281106111c8576111c76117f3565b5b60200201518260046006846111dd9190611751565b6111e79190611a3c565b815181106111f8576111f76117f3565b5b602002602001018181525050858181518110611217576112166117f3565b5b602002602001015160200151600060028110611236576112356117f3565b5b602002015182600560068461124b9190611751565b6112559190611a3c565b81518110611266576112656117f3565b5b602002602001018181525050808061127d90611856565b915050611006565b5061128e6113b0565b6000602082602086026020860160086107d05a03fa905080600081036112b057fe5b50806112bb57600080fd5b6000826000600181106112d1576112d06117f3565b5b602002015114159550505050505092915050565b6040518060a001604052806112f861132c565b815260200161130561138a565b815260200161131261138a565b815260200161131f61138a565b8152602001606081525090565b604051806040016040528060008152602001600081525090565b6040518060600160405280600390602082028036833780820191505090505090565b6040518060800160405280600490602082028036833780820191505090505090565b604051806040016040528061139d6113d2565b81526020016113aa6113d2565b81525090565b6040518060200160405280600190602082028036833780820191505090505090565b6040518060400160405280600290602082028036833780820191505090505090565b6000819050919050565b611407816113f4565b82525050565b600060208201905061142260008301846113fe565b92915050565b6000604051905090565b600080fd5b611440816113f4565b811461144b57600080fd5b50565b60008135905061145d81611437565b92915050565b6000806040838503121561147a57611479611432565b5b60006114888582860161144e565b92505060206114998582860161144e565b9150509250929050565b600080fd5b6000601f19601f8301169050919050565b7f4e487b7100000000000000000000000000000000000000000000000000000000600052604160045260246000fd5b6114f1826114a8565b810181811067ffffffffffffffff821117156115105761150f6114b9565b5b80604052505050565b6000611523611428565b905061152f82826114e8565b919050565b60006040828403121561154a576115496114a3565b5b6115546040611519565b905060006115648482850161144e565b60008301525060206115788482850161144e565b60208301525092915050565b600080fd5b600067ffffffffffffffff8211156115a4576115a36114b9565b5b602082029050919050565b600080fd5b60006115c76115c284611589565b611519565b905080602084028301858111156115e1576115e06115af565b5b835b8181101561160a57806115f6888261144e565b8452602084019350506020810190506115e3565b5050509392505050565b600082601f83011261162957611628611584565b5b60026116368482856115b4565b91505092915050565b600060808284031215611655576116546114a3565b5b61165f6040611519565b9050600061166f84828501611614565b600083015250604061168384828501611614565b60208301525092915050565b600061010082840312156116a6576116a56114a3565b5b6116b06060611519565b905060006116c084828501611534565b60008301525060406116d48482850161163f565b60208301525060c06116e884828501611534565b60408301525092915050565b6000610100828403121561170b5761170a611432565b5b60006117198482850161168f565b91505092915050565b7f4e487b7100000000000000000000000000000000000000000000000000000000600052601160045260246000fd5b600061175c826113f4565b9150611767836113f4565b9250828202611775816113f4565b9150828204841483151761178c5761178b611722565b5b5092915050565b7f4e487b7100000000000000000000000000000000000000000000000000000000600052601260045260246000fd5b60006117cd826113f4565b91506117d8836113f4565b9250826117e8576117e7611793565b5b828204905092915050565b7f4e487b7100000000000000000000000000000000000000000000000000000000600052603260045260246000fd5b600061182d826113f4565b9150611838836113f4565b92508282039050818111156118505761184f611722565b5b92915050565b6000611861826113f4565b91507fffffffffffffffffffffffffffffffffffffffffffffffffffffffffffffffff820361189357611892611722565b5b600182019050919050565b600082825260208201905092915050565b7f4e6f7420696e20736561736f6e00000000000000000000000000000000000000600082015250565b60006118e5600d8361189e565b91506118f0826118af565b602082019050919050565b60006020820190508181036000830152611914816118d8565b9050919050565b7f4661696c6564205a4b5000000000000000000000000000000000000000000000600082015250565b6000611951600a8361189e565b915061195c8261191b565b602082019050919050565b6000602082019050818103600083015261198081611944565b9050919050565b600073ffffffffffffffffffffffffffffffffffffffff82169050919050565b60006119b282611987565b9050919050565b6119c2816119a7565b82525050565b600063ffffffff82169050919050565b6119e1816119c8565b82525050565b60006040820190506119fc60008301856119b9565b611a0960208301846119d8565b9392505050565b6000611a1b826119c8565b915063ffffffff8203611a3157611a30611722565b5b600182019050919050565b6000611a47826113f4565b9150611a52836113f4565b9250828201905080821115611a6a57611a69611722565b5b92915050565b6000611a7b826113f4565b9150611a86836113f4565b925082611a9657611a95611793565b5b82820690509291505056fea2646970667358221220d459bfdc0c6f978118533e2d7e41603a8d57d14c6fae3b83dd324327656b1ef464736f6c63430008120033",
			"opcodes": "PUSH1 0x80 PUSH1 0x40 MSTORE CALLER PUSH1 0x0 DUP1 PUSH2 0x100 EXP DUP2 SLOAD DUP2 PUSH20 0xFFFFFFFFFFFFFFFFFFFFFFFFFFFFFFFFFFFFFFFF MUL NOT AND SWAP1 DUP4 PUSH20 0xFFFFFFFFFFFFFFFFFFFFFFFFFFFFFFFFFFFFFFFF AND MUL OR SWAP1 SSTORE POP CALLVALUE DUP1 ISZERO PUSH2 0x50 JUMPI PUSH1 0x0 DUP1 REVERT JUMPDEST POP PUSH2 0x1AD7 DUP1 PUSH2 0x60 PUSH1 0x0 CODECOPY PUSH1 0x0 RETURN INVALID PUSH1 0x80 PUSH1 0x40 MSTORE CALLVALUE DUP1 ISZERO PUSH2 0x10 JUMPI PUSH1 0x0 DUP1 REVERT JUMPDEST POP PUSH1 0x4 CALLDATASIZE LT PUSH2 0x57 JUMPI PUSH1 0x0 CALLDATALOAD PUSH1 0xE0 SHR DUP1 PUSH4 0x18DB78E EQ PUSH2 0x5C JUMPI DUP1 PUSH4 0x25C7FCDF EQ PUSH2 0x7A JUMPI DUP1 PUSH4 0x3DCDB672 EQ PUSH2 0x96 JUMPI DUP1 PUSH4 0xA1D5ECAF EQ PUSH2 0xA0 JUMPI DUP1 PUSH4 0xD9E78169 EQ PUSH2 0xBE JUMPI JUMPDEST PUSH1 0x0 DUP1 REVERT JUMPDEST PUSH2 0x64 PUSH2 0xDA JUMP JUMPDEST PUSH1 0x40 MLOAD PUSH2 0x71 SWAP2 SWAP1 PUSH2 0x140D JUMP JUMPDEST PUSH1 0x40 MLOAD DUP1 SWAP2 SUB SWAP1 RETURN JUMPDEST PUSH2 0x94 PUSH1 0x4 DUP1 CALLDATASIZE SUB DUP2 ADD SWAP1 PUSH2 0x8F SWAP2 SWAP1 PUSH2 0x1463 JUMP JUMPDEST PUSH2 0xE0 JUMP JUMPDEST STOP JUMPDEST PUSH2 0x9E PUSH2 0x19E JUMP JUMPDEST STOP JUMPDEST PUSH2 0xA8 PUSH2 0x320 JUMP JUMPDEST PUSH1 0x40 MLOAD PUSH2 0xB5 SWAP2 SWAP1 PUSH2 0x140D JUMP JUMPDEST PUSH1 0x40 MLOAD DUP1 SWAP2 SUB SWAP1 RETURN JUMPDEST PUSH2 0xD8 PUSH1 0x4 DUP1 CALLDATASIZE SUB DUP2 ADD SWAP1 PUSH2 0xD3 SWAP2 SWAP1 PUSH2 0x16F4 JUMP JUMPDEST PUSH2 0x358 JUMP JUMPDEST STOP JUMPDEST PUSH2 0x12C DUP2 JUMP JUMPDEST PUSH1 0x0 DUP1 SLOAD SWAP1 PUSH2 0x100 EXP SWAP1 DIV PUSH20 0xFFFFFFFFFFFFFFFFFFFFFFFFFFFFFFFFFFFFFFFF AND PUSH20 0xFFFFFFFFFFFFFFFFFFFFFFFFFFFFFFFFFFFFFFFF AND CALLER PUSH20 0xFFFFFFFFFFFFFFFFFFFFFFFFFFFFFFFFFFFFFFFF AND EQ PUSH2 0x138 JUMPI PUSH1 0x0 DUP1 REVERT JUMPDEST PUSH1 0x4 DUP1 SLOAD SWAP1 PUSH2 0x100 EXP SWAP1 DIV PUSH1 0xFF AND ISZERO PUSH2 0x150 JUMPI PUSH1 0x0 DUP1 REVERT JUMPDEST DUP2 PUSH1 0x2 DUP2 SWAP1 SSTORE POP DUP1 PUSH1 0x3 DUP2 SWAP1 SSTORE POP PUSH1 0x1 PUSH1 0x4 DUP1 PUSH2 0x100 EXP DUP2 SLOAD DUP2 PUSH1 0xFF MUL NOT AND SWAP1 DUP4 ISZERO ISZERO MUL OR SWAP1 SSTORE POP PUSH1 0x0 PUSH1 0x4 PUSH1 0x0 PUSH2 0x100 EXP DUP2 SLOAD DUP2 PUSH4 0xFFFFFFFF MUL NOT AND SWAP1 DUP4 PUSH4 0xFFFFFFFF AND MUL OR SWAP1 SSTORE POP POP POP JUMP JUMPDEST PUSH1 0x0 DUP1 SLOAD SWAP1 PUSH2 0x100 EXP SWAP1 DIV PUSH20 0xFFFFFFFFFFFFFFFFFFFFFFFFFFFFFFFFFFFFFFFF AND PUSH20 0xFFFFFFFFFFFFFFFFFFFFFFFFFFFFFFFFFFFFFFFF AND CALLER PUSH20 0xFFFFFFFFFFFFFFFFFFFFFFFFFFFFFFFFFFFFFFFF AND EQ PUSH2 0x1F6 JUMPI PUSH1 0x0 DUP1 REVERT JUMPDEST PUSH1 0x4 DUP1 SLOAD SWAP1 PUSH2 0x100 EXP SWAP1 DIV PUSH1 0xFF AND PUSH2 0x20D JUMPI PUSH1 0x0 DUP1 REVERT JUMPDEST PUSH1 0x0 PUSH2 0x217 PUSH2 0x320 JUMP JUMPDEST SWAP1 POP PUSH1 0x0 PUSH1 0x4 DUP1 PUSH2 0x100 EXP DUP2 SLOAD DUP2 PUSH1 0xFF MUL NOT AND SWAP1 DUP4 ISZERO ISZERO MUL OR SWAP1 SSTORE POP PUSH1 0x0 JUMPDEST PUSH1 0x4 PUSH1 0x0 SWAP1 SLOAD SWAP1 PUSH2 0x100 EXP SWAP1 DIV PUSH4 0xFFFFFFFF AND PUSH4 0xFFFFFFFF AND DUP2 LT ISZERO PUSH2 0x31C JUMPI PUSH1 0x0 PUSH2 0x12C PUSH2 0x3E8 DUP5 PUSH2 0x269 SWAP2 SWAP1 PUSH2 0x1751 JUMP JUMPDEST PUSH2 0x273 SWAP2 SWAP1 PUSH2 0x17C2 JUMP JUMPDEST SWAP1 POP PUSH1 0x1 DUP3 DUP2 SLOAD DUP2 LT PUSH2 0x289 JUMPI PUSH2 0x288 PUSH2 0x17F3 JUMP JUMPDEST JUMPDEST SWAP1 PUSH1 0x0 MSTORE PUSH1 0x20 PUSH1 0x0 KECCAK256 ADD PUSH1 0x0 SWAP1 SLOAD SWAP1 PUSH2 0x100 EXP SWAP1 DIV PUSH20 0xFFFFFFFFFFFFFFFFFFFFFFFFFFFFFFFFFFFFFFFF AND PUSH20 0xFFFFFFFFFFFFFFFFFFFFFFFFFFFFFFFFFFFFFFFF AND PUSH2 0x8FC DUP3 SWAP1 DUP2 ISZERO MUL SWAP1 PUSH1 0x40 MLOAD PUSH1 0x0 PUSH1 0x40 MLOAD DUP1 DUP4 SUB DUP2 DUP6 DUP9 DUP9 CALL SWAP4 POP POP POP POP ISZERO DUP1 ISZERO PUSH2 0x2F9 JUMPI RETURNDATASIZE PUSH1 0x0 DUP1 RETURNDATACOPY RETURNDATASIZE PUSH1 0x0 REVERT JUMPDEST POP DUP1 DUP4 PUSH2 0x306 SWAP2 SWAP1 PUSH2 0x1822 JUMP JUMPDEST SWAP3 POP POP DUP1 DUP1 PUSH2 0x314 SWAP1 PUSH2 0x1856 JUMP JUMPDEST SWAP2 POP POP PUSH2 0x236 JUMP JUMPDEST POP POP JUMP JUMPDEST PUSH1 0x0 PUSH1 0x4 DUP1 SLOAD SWAP1 PUSH2 0x100 EXP SWAP1 DIV PUSH1 0xFF AND PUSH2 0x33D JUMPI PUSH1 0x0 SWAP1 POP PUSH2 0x355 JUMP JUMPDEST PUSH1 0x3 SLOAD SELFBALANCE LT ISZERO PUSH2 0x34F JUMPI SELFBALANCE SWAP1 POP PUSH2 0x355 JUMP JUMPDEST PUSH1 0x3 SLOAD SWAP1 POP JUMPDEST SWAP1 JUMP JUMPDEST PUSH1 0x4 DUP1 SLOAD SWAP1 PUSH2 0x100 EXP SWAP1 DIV PUSH1 0xFF AND PUSH2 0x3A5 JUMPI PUSH1 0x40 MLOAD PUSH32 0x8C379A000000000000000000000000000000000000000000000000000000000 DUP2 MSTORE PUSH1 0x4 ADD PUSH2 0x39C SWAP1 PUSH2 0x18FB JUMP JUMPDEST PUSH1 0x40 MLOAD DUP1 SWAP2 SUB SWAP1 REVERT JUMPDEST PUSH1 0x0 PUSH1 0x2 PUSH8 0xFFFFFFFFFFFFFFFF DUP2 GT ISZERO PUSH2 0x3C2 JUMPI PUSH2 0x3C1 PUSH2 0x14B9 JUMP JUMPDEST JUMPDEST PUSH1 0x40 MLOAD SWAP1 DUP1 DUP3 MSTORE DUP1 PUSH1 0x20 MUL PUSH1 0x20 ADD DUP3 ADD PUSH1 0x40 MSTORE DUP1 ISZERO PUSH2 0x3F0 JUMPI DUP2 PUSH1 0x20 ADD PUSH1 0x20 DUP3 MUL DUP1 CALLDATASIZE DUP4 CALLDATACOPY DUP1 DUP3 ADD SWAP2 POP POP SWAP1 POP JUMPDEST POP SWAP1 POP PUSH1 0x80 PUSH1 0x2 SLOAD SWAP1 SHR DUP2 PUSH1 0x0 DUP2 MLOAD DUP2 LT PUSH2 0x40E JUMPI PUSH2 0x40D PUSH2 0x17F3 JUMP JUMPDEST JUMPDEST PUSH1 0x20 MUL PUSH1 0x20 ADD ADD DUP2 DUP2 MSTORE POP POP PUSH16 0xFFFFFFFFFFFFFFFFFFFFFFFFFFFFFFFF PUSH1 0x2 SLOAD AND DUP2 PUSH1 0x1 DUP2 MLOAD DUP2 LT PUSH2 0x443 JUMPI PUSH2 0x442 PUSH2 0x17F3 JUMP JUMPDEST JUMPDEST PUSH1 0x20 MUL PUSH1 0x20 ADD ADD DUP2 DUP2 MSTORE POP POP PUSH1 0x0 PUSH2 0x45B DUP3 DUP5 PUSH2 0x5A0 JUMP JUMPDEST EQ PUSH2 0x49B JUMPI PUSH1 0x40 MLOAD PUSH32 0x8C379A000000000000000000000000000000000000000000000000000000000 DUP2 MSTORE PUSH1 0x4 ADD PUSH2 0x492 SWAP1 PUSH2 0x1967 JUMP JUMPDEST PUSH1 0x40 MLOAD DUP1 SWAP2 SUB SWAP1 REVERT JUMPDEST CALLER PUSH1 0x1 PUSH1 0x4 PUSH1 0x0 SWAP1 SLOAD SWAP1 PUSH2 0x100 EXP SWAP1 DIV PUSH4 0xFFFFFFFF AND PUSH4 0xFFFFFFFF AND DUP2 SLOAD DUP2 LT PUSH2 0x4C8 JUMPI PUSH2 0x4C7 PUSH2 0x17F3 JUMP JUMPDEST JUMPDEST SWAP1 PUSH1 0x0 MSTORE PUSH1 0x20 PUSH1 0x0 KECCAK256 ADD PUSH1 0x0 PUSH2 0x100 EXP DUP2 SLOAD DUP2 PUSH20 0xFFFFFFFFFFFFFFFFFFFFFFFFFFFFFFFFFFFFFFFF MUL NOT AND SWAP1 DUP4 PUSH20 0xFFFFFFFFFFFFFFFFFFFFFFFFFFFFFFFFFFFFFFFF AND MUL OR SWAP1 SSTORE POP PUSH32 0xA33DC8451463751C13B48A16B7E46D5F7B9E7E450787B8F0B0FE1C66ECC7A24E CALLER PUSH1 0x4 PUSH1 0x0 SWAP1 SLOAD SWAP1 PUSH2 0x100 EXP SWAP1 DIV PUSH4 0xFFFFFFFF AND PUSH1 0x40 MLOAD PUSH2 0x553 SWAP3 SWAP2 SWAP1 PUSH2 0x19E7 JUMP JUMPDEST PUSH1 0x40 MLOAD DUP1 SWAP2 SUB SWAP1 LOG1 PUSH1 0x4 PUSH1 0x0 DUP2 DUP2 SWAP1 SLOAD SWAP1 PUSH2 0x100 EXP SWAP1 DIV PUSH4 0xFFFFFFFF AND DUP1 SWAP3 SWAP2 SWAP1 PUSH2 0x57D SWAP1 PUSH2 0x1A10 JUMP JUMPDEST SWAP2 SWAP1 PUSH2 0x100 EXP DUP2 SLOAD DUP2 PUSH4 0xFFFFFFFF MUL NOT AND SWAP1 DUP4 PUSH4 0xFFFFFFFF AND MUL OR SWAP1 SSTORE POP POP POP POP JUMP JUMPDEST PUSH1 0x0 DUP1 PUSH32 0x30644E72E131A029B85045B68181585D2833E84879B9709143E1F593F0000001 SWAP1 POP PUSH1 0x0 PUSH2 0x5D0 PUSH2 0x737 JUMP JUMPDEST SWAP1 POP DUP1 PUSH1 0x80 ADD MLOAD MLOAD PUSH1 0x1 DUP7 MLOAD PUSH2 0x5E6 SWAP2 SWAP1 PUSH2 0x1A3C JUMP JUMPDEST EQ PUSH2 0x5F0 JUMPI PUSH1 0x0 DUP1 REVERT JUMPDEST PUSH1 0x0 PUSH1 0x40 MLOAD DUP1 PUSH1 0x40 ADD PUSH1 0x40 MSTORE DUP1 PUSH1 0x0 DUP2 MSTORE PUSH1 0x20 ADD PUSH1 0x0 DUP2 MSTORE POP SWAP1 POP PUSH1 0x0 JUMPDEST DUP7 MLOAD DUP2 LT ISZERO PUSH2 0x6A9 JUMPI DUP4 DUP8 DUP3 DUP2 MLOAD DUP2 LT PUSH2 0x62B JUMPI PUSH2 0x62A PUSH2 0x17F3 JUMP JUMPDEST JUMPDEST PUSH1 0x20 MUL PUSH1 0x20 ADD ADD MLOAD LT PUSH2 0x63D JUMPI PUSH1 0x0 DUP1 REVERT JUMPDEST PUSH2 0x694 DUP3 PUSH2 0x68F DUP6 PUSH1 0x80 ADD MLOAD PUSH1 0x1 DUP6 PUSH2 0x656 SWAP2 SWAP1 PUSH2 0x1A3C JUMP JUMPDEST DUP2 MLOAD DUP2 LT PUSH2 0x667 JUMPI PUSH2 0x666 PUSH2 0x17F3 JUMP JUMPDEST JUMPDEST PUSH1 0x20 MUL PUSH1 0x20 ADD ADD MLOAD DUP11 DUP6 DUP2 MLOAD DUP2 LT PUSH2 0x682 JUMPI PUSH2 0x681 PUSH2 0x17F3 JUMP JUMPDEST JUMPDEST PUSH1 0x20 MUL PUSH1 0x20 ADD ADD MLOAD PUSH2 0xBB3 JUMP JUMPDEST PUSH2 0xC55 JUMP JUMPDEST SWAP2 POP DUP1 DUP1 PUSH2 0x6A1 SWAP1 PUSH2 0x1856 JUMP JUMPDEST SWAP2 POP POP PUSH2 0x60E JUMP JUMPDEST POP PUSH2 0x6D3 DUP2 DUP4 PUSH1 0x80 ADD MLOAD PUSH1 0x0 DUP2 MLOAD DUP2 LT PUSH2 0x6C6 JUMPI PUSH2 0x6C5 PUSH2 0x17F3 JUMP JUMPDEST JUMPDEST PUSH1 0x20 MUL PUSH1 0x20 ADD ADD MLOAD PUSH2 0xC55 JUMP JUMPDEST SWAP1 POP PUSH2 0x719 DUP6 PUSH1 0x0 ADD MLOAD DUP7 PUSH1 0x20 ADD MLOAD PUSH2 0x6EB DUP5 PUSH2 0xD1D JUMP JUMPDEST DUP6 PUSH1 0x40 ADD MLOAD PUSH2 0x6FD DUP11 PUSH1 0x40 ADD MLOAD PUSH2 0xD1D JUMP JUMPDEST DUP8 PUSH1 0x60 ADD MLOAD PUSH2 0x70F DUP10 PUSH1 0x0 ADD MLOAD PUSH2 0xD1D JUMP JUMPDEST DUP10 PUSH1 0x20 ADD MLOAD PUSH2 0xDC2 JUMP JUMPDEST PUSH2 0x729 JUMPI PUSH1 0x1 SWAP4 POP POP POP POP PUSH2 0x731 JUMP JUMPDEST PUSH1 0x0 SWAP4 POP POP POP POP JUMPDEST SWAP3 SWAP2 POP POP JUMP JUMPDEST PUSH2 0x73F PUSH2 0x12E5 JUMP JUMPDEST PUSH1 0x40 MLOAD DUP1 PUSH1 0x40 ADD PUSH1 0x40 MSTORE DUP1 PUSH32 0x2E955C2D3025AF3E942C6DF956C2D19A726EBFAF126A3864598679271FC4D781 DUP2 MSTORE PUSH1 0x20 ADD PUSH32 0x594D26B723E82F273D63DECCBF8427265C92FC7029EC8CD36426D7E9B8F85F4 DUP2 MSTORE POP DUP2 PUSH1 0x0 ADD DUP2 SWAP1 MSTORE POP PUSH1 0x40 MLOAD DUP1 PUSH1 0x40 ADD PUSH1 0x40 MSTORE DUP1 PUSH1 0x40 MLOAD DUP1 PUSH1 0x40 ADD PUSH1 0x40 MSTORE DUP1 PUSH32 0x2A662553BFE8F8020A89A0E1A5856051B7D69715A109CB94759A8C815EAE07E5 DUP2 MSTORE PUSH1 0x20 ADD PUSH32 0x1C0DE20B0B9A57237F8AA2AD0D0558879426FBEB864048FB84C4902FEF76B1B4 DUP2 MSTORE POP DUP2 MSTORE PUSH1 0x20 ADD PUSH1 0x40 MLOAD DUP1 PUSH1 0x40 ADD PUSH1 0x40 MSTORE DUP1 PUSH32 0x4C15A0B12F979A9E798B4B99EBDC09578F2A41203115E38DE69748E4BD7AF12 DUP2 MSTORE PUSH1 0x20 ADD PUSH32 0x2B634B2E6E9C7BE2C08A578239608E20B9A62C032A76D5326E845962AAFEF919 DUP2 MSTORE POP DUP2 MSTORE POP DUP2 PUSH1 0x20 ADD DUP2 SWAP1 MSTORE POP PUSH1 0x40 MLOAD DUP1 PUSH1 0x40 ADD PUSH1 0x40 MSTORE DUP1 PUSH1 0x40 MLOAD DUP1 PUSH1 0x40 ADD PUSH1 0x40 MSTORE DUP1 PUSH32 0x1D0E82748995D8EEA1305D20A4EB506348CAD619E2029DC829A0FD2754EB9153 DUP2 MSTORE PUSH1 0x20 ADD PUSH32 0x2746A21CAD55097D6723A8B7D328D69380CB2F6308969399649D05DB0FFE4B02 DUP2 MSTORE POP DUP2 MSTORE PUSH1 0x20 ADD PUSH1 0x40 MLOAD DUP1 PUSH1 0x40 ADD PUSH1 0x40 MSTORE DUP1 PUSH32 0x19E694F50DF527216D617E0215FBCAD55F737D8D61CD006ACF622891CC096EF DUP2 MSTORE PUSH1 0x20 ADD PUSH32 0x13F4442E9339BEC5CCA36D6B149E2B85D42255C486E411D1C89FB55207F1C226 DUP2 MSTORE POP DUP2 MSTORE POP DUP2 PUSH1 0x40 ADD DUP2 SWAP1 MSTORE POP PUSH1 0x40 MLOAD DUP1 PUSH1 0x40 ADD PUSH1 0x40 MSTORE DUP1 PUSH1 0x40 MLOAD DUP1 PUSH1 0x40 ADD PUSH1 0x40 MSTORE DUP1 PUSH32 0x25B43A264152589039D362A8B9014C03BF1FD3DC2DACCD26699B06E5C10667FB DUP2 MSTORE PUSH1 0x20 ADD PUSH32 0x5CB638478BBA7516F218832063C84E3622C098899E361C8FAD7198A785C2C09 DUP2 MSTORE POP DUP2 MSTORE PUSH1 0x20 ADD PUSH1 0x40 MLOAD DUP1 PUSH1 0x40 ADD PUSH1 0x40 MSTORE DUP1 PUSH32 0xEA656717FA31708FD9E685178F16E269BE94E29CCE813E9BF480AD8A1D34337 DUP2 MSTORE PUSH1 0x20 ADD PUSH32 0x2FBD4AB3BCB20A1DB8CADF5698714A4EC089AB60A7EC8630536AEA74D6B257C DUP2 MSTORE POP DUP2 MSTORE POP DUP2 PUSH1 0x60 ADD DUP2 SWAP1 MSTORE POP PUSH1 0x3 PUSH8 0xFFFFFFFFFFFFFFFF DUP2 GT ISZERO PUSH2 0xA06 JUMPI PUSH2 0xA05 PUSH2 0x14B9 JUMP JUMPDEST JUMPDEST PUSH1 0x40 MLOAD SWAP1 DUP1 DUP3 MSTORE DUP1 PUSH1 0x20 MUL PUSH1 0x20 ADD DUP3 ADD PUSH1 0x40 MSTORE DUP1 ISZERO PUSH2 0xA3F JUMPI DUP2 PUSH1 0x20 ADD JUMPDEST PUSH2 0xA2C PUSH2 0x132C JUMP JUMPDEST DUP2 MSTORE PUSH1 0x20 ADD SWAP1 PUSH1 0x1 SWAP1 SUB SWAP1 DUP2 PUSH2 0xA24 JUMPI SWAP1 POP JUMPDEST POP DUP2 PUSH1 0x80 ADD DUP2 SWAP1 MSTORE POP PUSH1 0x40 MLOAD DUP1 PUSH1 0x40 ADD PUSH1 0x40 MSTORE DUP1 PUSH32 0x1D7126E66426AA081664090EA7B8842F7E78A9BE2F6CD1F9CFB0F8954132AF38 DUP2 MSTORE PUSH1 0x20 ADD PUSH32 0x210405BB3AC7DABBF74C73C370678EB7916D77B88016C0E71E01A0DA1D09463B DUP2 MSTORE POP DUP2 PUSH1 0x80 ADD MLOAD PUSH1 0x0 DUP2 MLOAD DUP2 LT PUSH2 0xAB5 JUMPI PUSH2 0xAB4 PUSH2 0x17F3 JUMP JUMPDEST JUMPDEST PUSH1 0x20 MUL PUSH1 0x20 ADD ADD DUP2 SWAP1 MSTORE POP PUSH1 0x40 MLOAD DUP1 PUSH1 0x40 ADD PUSH1 0x40 MSTORE DUP1 PUSH32 0x1794B8FC53BD77F1B1D1C89624D82A036F228E80BADA1ED573C8596ACCFE4835 DUP2 MSTORE PUSH1 0x20 ADD PUSH32 0x13854A332B1626863A095BA6349758873071948D5F610DF709C9A4DF8968A394 DUP2 MSTORE POP DUP2 PUSH1 0x80 ADD MLOAD PUSH1 0x1 DUP2 MLOAD DUP2 LT PUSH2 0xB2D JUMPI PUSH2 0xB2C PUSH2 0x17F3 JUMP JUMPDEST JUMPDEST PUSH1 0x20 MUL PUSH1 0x20 ADD ADD DUP2 SWAP1 MSTORE POP PUSH1 0x40 MLOAD DUP1 PUSH1 0x40 ADD PUSH1 0x40 MSTORE DUP1 PUSH32 0x24DC7542ED7D6EBA0242FEAC682E3864C17BD2374BDFA1D5CE6B26AEB20E15CA DUP2 MSTORE PUSH1 0x20 ADD PUSH32 0x6F58751BCA94452057D979C78E75C6AB19263753D66B494C427887387E95CB7 DUP2 MSTORE POP DUP2 PUSH1 0x80 ADD MLOAD PUSH1 0x2 DUP2 MLOAD DUP2 LT PUSH2 0xBA5 JUMPI PUSH2 0xBA4 PUSH2 0x17F3 JUMP JUMPDEST JUMPDEST PUSH1 0x20 MUL PUSH1 0x20 ADD ADD DUP2 SWAP1 MSTORE POP SWAP1 JUMP JUMPDEST PUSH2 0xBBB PUSH2 0x132C JUMP JUMPDEST PUSH2 0xBC3 PUSH2 0x1346 JUMP JUMPDEST DUP4 PUSH1 0x0 ADD MLOAD DUP2 PUSH1 0x0 PUSH1 0x3 DUP2 LT PUSH2 0xBDC JUMPI PUSH2 0xBDB PUSH2 0x17F3 JUMP JUMPDEST JUMPDEST PUSH1 0x20 MUL ADD DUP2 DUP2 MSTORE POP POP DUP4 PUSH1 0x20 ADD MLOAD DUP2 PUSH1 0x1 PUSH1 0x3 DUP2 LT PUSH2 0xBFE JUMPI PUSH2 0xBFD PUSH2 0x17F3 JUMP JUMPDEST JUMPDEST PUSH1 0x20 MUL ADD DUP2 DUP2 MSTORE POP POP DUP3 DUP2 PUSH1 0x2 PUSH1 0x3 DUP2 LT PUSH2 0xC1C JUMPI PUSH2 0xC1B PUSH2 0x17F3 JUMP JUMPDEST JUMPDEST PUSH1 0x20 MUL ADD DUP2 DUP2 MSTORE POP POP PUSH1 0x0 PUSH1 0x60 DUP4 PUSH1 0x80 DUP5 PUSH1 0x7 PUSH2 0x7D0 GAS SUB STATICCALL SWAP1 POP DUP1 PUSH1 0x0 DUP2 SUB PUSH2 0xC42 JUMPI INVALID JUMPDEST POP DUP1 PUSH2 0xC4D JUMPI PUSH1 0x0 DUP1 REVERT JUMPDEST POP POP SWAP3 SWAP2 POP POP JUMP JUMPDEST PUSH2 0xC5D PUSH2 0x132C JUMP JUMPDEST PUSH2 0xC65 PUSH2 0x1368 JUMP JUMPDEST DUP4 PUSH1 0x0 ADD MLOAD DUP2 PUSH1 0x0 PUSH1 0x4 DUP2 LT PUSH2 0xC7E JUMPI PUSH2 0xC7D PUSH2 0x17F3 JUMP JUMPDEST JUMPDEST PUSH1 0x20 MUL ADD DUP2 DUP2 MSTORE POP POP DUP4 PUSH1 0x20 ADD MLOAD DUP2 PUSH1 0x1 PUSH1 0x4 DUP2 LT PUSH2 0xCA0 JUMPI PUSH2 0xC9F PUSH2 0x17F3 JUMP JUMPDEST JUMPDEST PUSH1 0x20 MUL ADD DUP2 DUP2 MSTORE POP POP DUP3 PUSH1 0x0 ADD MLOAD DUP2 PUSH1 0x2 PUSH1 0x4 DUP2 LT PUSH2 0xCC2 JUMPI PUSH2 0xCC1 PUSH2 0x17F3 JUMP JUMPDEST JUMPDEST PUSH1 0x20 MUL ADD DUP2 DUP2 MSTORE POP POP DUP3 PUSH1 0x20 ADD MLOAD DUP2 PUSH1 0x3 PUSH1 0x4 DUP2 LT PUSH2 0xCE4 JUMPI PUSH2 0xCE3 PUSH2 0x17F3 JUMP JUMPDEST JUMPDEST PUSH1 0x20 MUL ADD DUP2 DUP2 MSTORE POP POP PUSH1 0x0 PUSH1 0x60 DUP4 PUSH1 0xC0 DUP5 PUSH1 0x6 PUSH2 0x7D0 GAS SUB STATICCALL SWAP1 POP DUP1 PUSH1 0x0 DUP2 SUB PUSH2 0xD0A JUMPI INVALID JUMPDEST POP DUP1 PUSH2 0xD15 JUMPI PUSH1 0x0 DUP1 REVERT JUMPDEST POP POP SWAP3 SWAP2 POP POP JUMP JUMPDEST PUSH2 0xD25 PUSH2 0x132C JUMP JUMPDEST PUSH1 0x0 PUSH32 0x30644E72E131A029B85045B68181585D97816A916871CA8D3C208C16D87CFD47 SWAP1 POP PUSH1 0x0 DUP4 PUSH1 0x0 ADD MLOAD EQ DUP1 ISZERO PUSH2 0xD62 JUMPI POP PUSH1 0x0 DUP4 PUSH1 0x20 ADD MLOAD EQ JUMPDEST ISZERO PUSH2 0xD86 JUMPI PUSH1 0x40 MLOAD DUP1 PUSH1 0x40 ADD PUSH1 0x40 MSTORE DUP1 PUSH1 0x0 DUP2 MSTORE PUSH1 0x20 ADD PUSH1 0x0 DUP2 MSTORE POP SWAP2 POP POP PUSH2 0xDBD JUMP JUMPDEST PUSH1 0x40 MLOAD DUP1 PUSH1 0x40 ADD PUSH1 0x40 MSTORE DUP1 DUP5 PUSH1 0x0 ADD MLOAD DUP2 MSTORE PUSH1 0x20 ADD DUP3 DUP6 PUSH1 0x20 ADD MLOAD PUSH2 0xDAB SWAP2 SWAP1 PUSH2 0x1A70 JUMP JUMPDEST DUP4 PUSH2 0xDB6 SWAP2 SWAP1 PUSH2 0x1822 JUMP JUMPDEST DUP2 MSTORE POP SWAP2 POP POP JUMPDEST SWAP2 SWAP1 POP JUMP JUMPDEST PUSH1 0x0 DUP1 PUSH1 0x4 PUSH8 0xFFFFFFFFFFFFFFFF DUP2 GT ISZERO PUSH2 0xDE0 JUMPI PUSH2 0xDDF PUSH2 0x14B9 JUMP JUMPDEST JUMPDEST PUSH1 0x40 MLOAD SWAP1 DUP1 DUP3 MSTORE DUP1 PUSH1 0x20 MUL PUSH1 0x20 ADD DUP3 ADD PUSH1 0x40 MSTORE DUP1 ISZERO PUSH2 0xE19 JUMPI DUP2 PUSH1 0x20 ADD JUMPDEST PUSH2 0xE06 PUSH2 0x132C JUMP JUMPDEST DUP2 MSTORE PUSH1 0x20 ADD SWAP1 PUSH1 0x1 SWAP1 SUB SWAP1 DUP2 PUSH2 0xDFE JUMPI SWAP1 POP JUMPDEST POP SWAP1 POP PUSH1 0x0 PUSH1 0x4 PUSH8 0xFFFFFFFFFFFFFFFF DUP2 GT ISZERO PUSH2 0xE39 JUMPI PUSH2 0xE38 PUSH2 0x14B9 JUMP JUMPDEST JUMPDEST PUSH1 0x40 MLOAD SWAP1 DUP1 DUP3 MSTORE DUP1 PUSH1 0x20 MUL PUSH1 0x20 ADD DUP3 ADD PUSH1 0x40 MSTORE DUP1 ISZERO PUSH2 0xE72 JUMPI DUP2 PUSH1 0x20 ADD JUMPDEST PUSH2 0xE5F PUSH2 0x138A JUMP JUMPDEST DUP2 MSTORE PUSH1 0x20 ADD SWAP1 PUSH1 0x1 SWAP1 SUB SWAP1 DUP2 PUSH2 0xE57 JUMPI SWAP1 POP JUMPDEST POP SWAP1 POP DUP11 DUP3 PUSH1 0x0 DUP2 MLOAD DUP2 LT PUSH2 0xE8A JUMPI PUSH2 0xE89 PUSH2 0x17F3 JUMP JUMPDEST JUMPDEST PUSH1 0x20 MUL PUSH1 0x20 ADD ADD DUP2 SWAP1 MSTORE POP DUP9 DUP3 PUSH1 0x1 DUP2 MLOAD DUP2 LT PUSH2 0xEAA JUMPI PUSH2 0xEA9 PUSH2 0x17F3 JUMP JUMPDEST JUMPDEST PUSH1 0x20 MUL PUSH1 0x20 ADD ADD DUP2 SWAP1 MSTORE POP DUP7 DUP3 PUSH1 0x2 DUP2 MLOAD DUP2 LT PUSH2 0xECA JUMPI PUSH2 0xEC9 PUSH2 0x17F3 JUMP JUMPDEST JUMPDEST PUSH1 0x20 MUL PUSH1 0x20 ADD ADD DUP2 SWAP1 MSTORE POP DUP5 DUP3 PUSH1 0x3 DUP2 MLOAD DUP2 LT PUSH2 0xEEA JUMPI PUSH2 0xEE9 PUSH2 0x17F3 JUMP JUMPDEST JUMPDEST PUSH1 0x20 MUL PUSH1 0x20 ADD ADD DUP2 SWAP1 MSTORE POP DUP10 DUP2 PUSH1 0x0 DUP2 MLOAD DUP2 LT PUSH2 0xF0A JUMPI PUSH2 0xF09 PUSH2 0x17F3 JUMP JUMPDEST JUMPDEST PUSH1 0x20 MUL PUSH1 0x20 ADD ADD DUP2 SWAP1 MSTORE POP DUP8 DUP2 PUSH1 0x1 DUP2 MLOAD DUP2 LT PUSH2 0xF2A JUMPI PUSH2 0xF29 PUSH2 0x17F3 JUMP JUMPDEST JUMPDEST PUSH1 0x20 MUL PUSH1 0x20 ADD ADD DUP2 SWAP1 MSTORE POP DUP6 DUP2 PUSH1 0x2 DUP2 MLOAD DUP2 LT PUSH2 0xF4A JUMPI PUSH2 0xF49 PUSH2 0x17F3 JUMP JUMPDEST JUMPDEST PUSH1 0x20 MUL PUSH1 0x20 ADD ADD DUP2 SWAP1 MSTORE POP DUP4 DUP2 PUSH1 0x3 DUP2 MLOAD DUP2 LT PUSH2 0xF6A JUMPI PUSH2 0xF69 PUSH2 0x17F3 JUMP JUMPDEST JUMPDEST PUSH1 0x20 MUL PUSH1 0x20 ADD ADD DUP2 SWAP1 MSTORE POP PUSH2 0xF7F DUP3 DUP3 PUSH2 0xF8F JUMP JUMPDEST SWAP3 POP POP POP SWAP9 SWAP8 POP POP POP POP POP POP POP POP JUMP JUMPDEST PUSH1 0x0 DUP2 MLOAD DUP4 MLOAD EQ PUSH2 0xF9F JUMPI PUSH1 0x0 DUP1 REVERT JUMPDEST PUSH1 0x0 DUP4 MLOAD SWAP1 POP PUSH1 0x0 PUSH1 0x6 DUP3 PUSH2 0xFB4 SWAP2 SWAP1 PUSH2 0x1751 JUMP JUMPDEST SWAP1 POP PUSH1 0x0 DUP2 PUSH8 0xFFFFFFFFFFFFFFFF DUP2 GT ISZERO PUSH2 0xFD2 JUMPI PUSH2 0xFD1 PUSH2 0x14B9 JUMP JUMPDEST JUMPDEST PUSH1 0x40 MLOAD SWAP1 DUP1 DUP3 MSTORE DUP1 PUSH1 0x20 MUL PUSH1 0x20 ADD DUP3 ADD PUSH1 0x40 MSTORE DUP1 ISZERO PUSH2 0x1000 JUMPI DUP2 PUSH1 0x20 ADD PUSH1 0x20 DUP3 MUL DUP1 CALLDATASIZE DUP4 CALLDATACOPY DUP1 DUP3 ADD SWAP2 POP POP SWAP1 POP JUMPDEST POP SWAP1 POP PUSH1 0x0 JUMPDEST DUP4 DUP2 LT ISZERO PUSH2 0x1285 JUMPI DUP7 DUP2 DUP2 MLOAD DUP2 LT PUSH2 0x1021 JUMPI PUSH2 0x1020 PUSH2 0x17F3 JUMP JUMPDEST JUMPDEST PUSH1 0x20 MUL PUSH1 0x20 ADD ADD MLOAD PUSH1 0x0 ADD MLOAD DUP3 PUSH1 0x0 PUSH1 0x6 DUP5 PUSH2 0x103D SWAP2 SWAP1 PUSH2 0x1751 JUMP JUMPDEST PUSH2 0x1047 SWAP2 SWAP1 PUSH2 0x1A3C JUMP JUMPDEST DUP2 MLOAD DUP2 LT PUSH2 0x1058 JUMPI PUSH2 0x1057 PUSH2 0x17F3 JUMP JUMPDEST JUMPDEST PUSH1 0x20 MUL PUSH1 0x20 ADD ADD DUP2 DUP2 MSTORE POP POP DUP7 DUP2 DUP2 MLOAD DUP2 LT PUSH2 0x1077 JUMPI PUSH2 0x1076 PUSH2 0x17F3 JUMP JUMPDEST JUMPDEST PUSH1 0x20 MUL PUSH1 0x20 ADD ADD MLOAD PUSH1 0x20 ADD MLOAD DUP3 PUSH1 0x1 PUSH1 0x6 DUP5 PUSH2 0x1093 SWAP2 SWAP1 PUSH2 0x1751 JUMP JUMPDEST PUSH2 0x109D SWAP2 SWAP1 PUSH2 0x1A3C JUMP JUMPDEST DUP2 MLOAD DUP2 LT PUSH2 0x10AE JUMPI PUSH2 0x10AD PUSH2 0x17F3 JUMP JUMPDEST JUMPDEST PUSH1 0x20 MUL PUSH1 0x20 ADD ADD DUP2 DUP2 MSTORE POP POP DUP6 DUP2 DUP2 MLOAD DUP2 LT PUSH2 0x10CD JUMPI PUSH2 0x10CC PUSH2 0x17F3 JUMP JUMPDEST JUMPDEST PUSH1 0x20 MUL PUSH1 0x20 ADD ADD MLOAD PUSH1 0x0 ADD MLOAD PUSH1 0x1 PUSH1 0x2 DUP2 LT PUSH2 0x10EC JUMPI PUSH2 0x10EB PUSH2 0x17F3 JUMP JUMPDEST JUMPDEST PUSH1 0x20 MUL ADD MLOAD DUP3 PUSH1 0x2 PUSH1 0x6 DUP5 PUSH2 0x1101 SWAP2 SWAP1 PUSH2 0x1751 JUMP JUMPDEST PUSH2 0x110B SWAP2 SWAP1 PUSH2 0x1A3C JUMP JUMPDEST DUP2 MLOAD DUP2 LT PUSH2 0x111C JUMPI PUSH2 0x111B PUSH2 0x17F3 JUMP JUMPDEST JUMPDEST PUSH1 0x20 MUL PUSH1 0x20 ADD ADD DUP2 DUP2 MSTORE POP POP DUP6 DUP2 DUP2 MLOAD DUP2 LT PUSH2 0x113B JUMPI PUSH2 0x113A PUSH2 0x17F3 JUMP JUMPDEST JUMPDEST PUSH1 0x20 MUL PUSH1 0x20 ADD ADD MLOAD PUSH1 0x0 ADD MLOAD PUSH1 0x0 PUSH1 0x2 DUP2 LT PUSH2 0x115A JUMPI PUSH2 0x1159 PUSH2 0x17F3 JUMP JUMPDEST JUMPDEST PUSH1 0x20 MUL ADD MLOAD DUP3 PUSH1 0x3 PUSH1 0x6 DUP5 PUSH2 0x116F SWAP2 SWAP1 PUSH2 0x1751 JUMP JUMPDEST PUSH2 0x1179 SWAP2 SWAP1 PUSH2 0x1A3C JUMP JUMPDEST DUP2 MLOAD DUP2 LT PUSH2 0x118A JUMPI PUSH2 0x1189 PUSH2 0x17F3 JUMP JUMPDEST JUMPDEST PUSH1 0x20 MUL PUSH1 0x20 ADD ADD DUP2 DUP2 MSTORE POP POP DUP6 DUP2 DUP2 MLOAD DUP2 LT PUSH2 0x11A9 JUMPI PUSH2 0x11A8 PUSH2 0x17F3 JUMP JUMPDEST JUMPDEST PUSH1 0x20 MUL PUSH1 0x20 ADD ADD MLOAD PUSH1 0x20 ADD MLOAD PUSH1 0x1 PUSH1 0x2 DUP2 LT PUSH2 0x11C8 JUMPI PUSH2 0x11C7 PUSH2 0x17F3 JUMP JUMPDEST JUMPDEST PUSH1 0x20 MUL ADD MLOAD DUP3 PUSH1 0x4 PUSH1 0x6 DUP5 PUSH2 0x11DD SWAP2 SWAP1 PUSH2 0x1751 JUMP JUMPDEST PUSH2 0x11E7 SWAP2 SWAP1 PUSH2 0x1A3C JUMP JUMPDEST DUP2 MLOAD DUP2 LT PUSH2 0x11F8 JUMPI PUSH2 0x11F7 PUSH2 0x17F3 JUMP JUMPDEST JUMPDEST PUSH1 0x20 MUL PUSH1 0x20 ADD ADD DUP2 DUP2 MSTORE POP POP DUP6 DUP2 DUP2 MLOAD DUP2 LT PUSH2 0x1217 JUMPI PUSH2 0x1216 PUSH2 0x17F3 JUMP JUMPDEST JUMPDEST PUSH1 0x20 MUL PUSH1 0x20 ADD ADD MLOAD PUSH1 0x20 ADD MLOAD PUSH1 0x0 PUSH1 0x2 DUP2 LT PUSH2 0x1236 JUMPI PUSH2 0x1235 PUSH2 0x17F3 JUMP JUMPDEST JUMPDEST PUSH1 0x20 MUL ADD MLOAD DUP3 PUSH1 0x5 PUSH1 0x6 DUP5 PUSH2 0x124B SWAP2 SWAP1 PUSH2 0x1751 JUMP JUMPDEST PUSH2 0x1255 SWAP2 SWAP1 PUSH2 0x1A3C JUMP JUMPDEST DUP2 MLOAD DUP2 LT PUSH2 0x1266 JUMPI PUSH2 0x1265 PUSH2 0x17F3 JUMP JUMPDEST JUMPDEST PUSH1 0x20 MUL PUSH1 0x20 ADD ADD DUP2 DUP2 MSTORE POP POP DUP1 DUP1 PUSH2 0x127D SWAP1 PUSH2 0x1856 JUMP JUMPDEST SWAP2 POP POP PUSH2 0x1006 JUMP JUMPDEST POP PUSH2 0x128E PUSH2 0x13B0 JUMP JUMPDEST PUSH1 0x0 PUSH1 0x20 DUP3 PUSH1 0x20 DUP7 MUL PUSH1 0x20 DUP7 ADD PUSH1 0x8 PUSH2 0x7D0 GAS SUB STATICCALL SWAP1 POP DUP1 PUSH1 0x0 DUP2 SUB PUSH2 0x12B0 JUMPI INVALID JUMPDEST POP DUP1 PUSH2 0x12BB JUMPI PUSH1 0x0 DUP1 REVERT JUMPDEST PUSH1 0x0 DUP3 PUSH1 0x0 PUSH1 0x1 DUP2 LT PUSH2 0x12D1 JUMPI PUSH2 0x12D0 PUSH2 0x17F3 JUMP JUMPDEST JUMPDEST PUSH1 0x20 MUL ADD MLOAD EQ ISZERO SWAP6 POP POP POP POP POP POP SWAP3 SWAP2 POP POP JUMP JUMPDEST PUSH1 0x40 MLOAD DUP1 PUSH1 0xA0 ADD PUSH1 0x40 MSTORE DUP1 PUSH2 0x12F8 PUSH2 0x132C JUMP JUMPDEST DUP2 MSTORE PUSH1 0x20 ADD PUSH2 0x1305 PUSH2 0x138A JUMP JUMPDEST DUP2 MSTORE PUSH1 0x20 ADD PUSH2 0x1312 PUSH2 0x138A JUMP JUMPDEST DUP2 MSTORE PUSH1 0x20 ADD PUSH2 0x131F PUSH2 0x138A JUMP JUMPDEST DUP2 MSTORE PUSH1 0x20 ADD PUSH1 0x60 DUP2 MSTORE POP SWAP1 JUMP JUMPDEST PUSH1 0x40 MLOAD DUP1 PUSH1 0x40 ADD PUSH1 0x40 MSTORE DUP1 PUSH1 0x0 DUP2 MSTORE PUSH1 0x20 ADD PUSH1 0x0 DUP2 MSTORE POP SWAP1 JUMP JUMPDEST PUSH1 0x40 MLOAD DUP1 PUSH1 0x60 ADD PUSH1 0x40 MSTORE DUP1 PUSH1 0x3 SWAP1 PUSH1 0x20 DUP3 MUL DUP1 CALLDATASIZE DUP4 CALLDATACOPY DUP1 DUP3 ADD SWAP2 POP POP SWAP1 POP POP SWAP1 JUMP JUMPDEST PUSH1 0x40 MLOAD DUP1 PUSH1 0x80 ADD PUSH1 0x40 MSTORE DUP1 PUSH1 0x4 SWAP1 PUSH1 0x20 DUP3 MUL DUP1 CALLDATASIZE DUP4 CALLDATACOPY DUP1 DUP3 ADD SWAP2 POP POP SWAP1 POP POP SWAP1 JUMP JUMPDEST PUSH1 0x40 MLOAD DUP1 PUSH1 0x40 ADD PUSH1 0x40 MSTORE DUP1 PUSH2 0x139D PUSH2 0x13D2 JUMP JUMPDEST DUP2 MSTORE PUSH1 0x20 ADD PUSH2 0x13AA PUSH2 0x13D2 JUMP JUMPDEST DUP2 MSTORE POP SWAP1 JUMP JUMPDEST PUSH1 0x40 MLOAD DUP1 PUSH1 0x20 ADD PUSH1 0x40 MSTORE DUP1 PUSH1 0x1 SWAP1 PUSH1 0x20 DUP3 MUL DUP1 CALLDATASIZE DUP4 CALLDATACOPY DUP1 DUP3 ADD SWAP2 POP POP SWAP1 POP POP SWAP1 JUMP JUMPDEST PUSH1 0x40 MLOAD DUP1 PUSH1 0x40 ADD PUSH1 0x40 MSTORE DUP1 PUSH1 0x2 SWAP1 PUSH1 0x20 DUP3 MUL DUP1 CALLDATASIZE DUP4 CALLDATACOPY DUP1 DUP3 ADD SWAP2 POP POP SWAP1 POP POP SWAP1 JUMP JUMPDEST PUSH1 0x0 DUP2 SWAP1 POP SWAP2 SWAP1 POP JUMP JUMPDEST PUSH2 0x1407 DUP2 PUSH2 0x13F4 JUMP JUMPDEST DUP3 MSTORE POP POP JUMP JUMPDEST PUSH1 0x0 PUSH1 0x20 DUP3 ADD SWAP1 POP PUSH2 0x1422 PUSH1 0x0 DUP4 ADD DUP5 PUSH2 0x13FE JUMP JUMPDEST SWAP3 SWAP2 POP POP JUMP JUMPDEST PUSH1 0x0 PUSH1 0x40 MLOAD SWAP1 POP SWAP1 JUMP JUMPDEST PUSH1 0x0 DUP1 REVERT JUMPDEST PUSH2 0x1440 DUP2 PUSH2 0x13F4 JUMP JUMPDEST DUP2 EQ PUSH2 0x144B JUMPI PUSH1 0x0 DUP1 REVERT JUMPDEST POP JUMP JUMPDEST PUSH1 0x0 DUP2 CALLDATALOAD SWAP1 POP PUSH2 0x145D DUP2 PUSH2 0x1437 JUMP JUMPDEST SWAP3 SWAP2 POP POP JUMP JUMPDEST PUSH1 0x0 DUP1 PUSH1 0x40 DUP4 DUP6 SUB SLT ISZERO PUSH2 0x147A JUMPI PUSH2 0x1479 PUSH2 0x1432 JUMP JUMPDEST JUMPDEST PUSH1 0x0 PUSH2 0x1488 DUP6 DUP3 DUP7 ADD PUSH2 0x144E JUMP JUMPDEST SWAP3 POP POP PUSH1 0x20 PUSH2 0x1499 DUP6 DUP3 DUP7 ADD PUSH2 0x144E JUMP JUMPDEST SWAP2 POP POP SWAP3 POP SWAP3 SWAP1 POP JUMP JUMPDEST PUSH1 0x0 DUP1 REVERT JUMPDEST PUSH1 0x0 PUSH1 0x1F NOT PUSH1 0x1F DUP4 ADD AND SWAP1 POP SWAP2 SWAP1 POP JUMP JUMPDEST PUSH32 0x4E487B7100000000000000000000000000000000000000000000000000000000 PUSH1 0x0 MSTORE PUSH1 0x41 PUSH1 0x4 MSTORE PUSH1 0x24 PUSH1 0x0 REVERT JUMPDEST PUSH2 0x14F1 DUP3 PUSH2 0x14A8 JUMP JUMPDEST DUP2 ADD DUP2 DUP2 LT PUSH8 0xFFFFFFFFFFFFFFFF DUP3 GT OR ISZERO PUSH2 0x1510 JUMPI PUSH2 0x150F PUSH2 0x14B9 JUMP JUMPDEST JUMPDEST DUP1 PUSH1 0x40 MSTORE POP POP POP JUMP JUMPDEST PUSH1 0x0 PUSH2 0x1523 PUSH2 0x1428 JUMP JUMPDEST SWAP1 POP PUSH2 0x152F DUP3 DUP3 PUSH2 0x14E8 JUMP JUMPDEST SWAP2 SWAP1 POP JUMP JUMPDEST PUSH1 0x0 PUSH1 0x40 DUP3 DUP5 SUB SLT ISZERO PUSH2 0x154A JUMPI PUSH2 0x1549 PUSH2 0x14A3 JUMP JUMPDEST JUMPDEST PUSH2 0x1554 PUSH1 0x40 PUSH2 0x1519 JUMP JUMPDEST SWAP1 POP PUSH1 0x0 PUSH2 0x1564 DUP5 DUP3 DUP6 ADD PUSH2 0x144E JUMP JUMPDEST PUSH1 0x0 DUP4 ADD MSTORE POP PUSH1 0x20 PUSH2 0x1578 DUP5 DUP3 DUP6 ADD PUSH2 0x144E JUMP JUMPDEST PUSH1 0x20 DUP4 ADD MSTORE POP SWAP3 SWAP2 POP POP JUMP JUMPDEST PUSH1 0x0 DUP1 REVERT JUMPDEST PUSH1 0x0 PUSH8 0xFFFFFFFFFFFFFFFF DUP3 GT ISZERO PUSH2 0x15A4 JUMPI PUSH2 0x15A3 PUSH2 0x14B9 JUMP JUMPDEST JUMPDEST PUSH1 0x20 DUP3 MUL SWAP1 POP SWAP2 SWAP1 POP JUMP JUMPDEST PUSH1 0x0 DUP1 REVERT JUMPDEST PUSH1 0x0 PUSH2 0x15C7 PUSH2 0x15C2 DUP5 PUSH2 0x1589 JUMP JUMPDEST PUSH2 0x1519 JUMP JUMPDEST SWAP1 POP DUP1 PUSH1 0x20 DUP5 MUL DUP4 ADD DUP6 DUP2 GT ISZERO PUSH2 0x15E1 JUMPI PUSH2 0x15E0 PUSH2 0x15AF JUMP JUMPDEST JUMPDEST DUP4 JUMPDEST DUP2 DUP2 LT ISZERO PUSH2 0x160A JUMPI DUP1 PUSH2 0x15F6 DUP9 DUP3 PUSH2 0x144E JUMP JUMPDEST DUP5 MSTORE PUSH1 0x20 DUP5 ADD SWAP4 POP POP PUSH1 0x20 DUP2 ADD SWAP1 POP PUSH2 0x15E3 JUMP JUMPDEST POP POP POP SWAP4 SWAP3 POP POP POP JUMP JUMPDEST PUSH1 0x0 DUP3 PUSH1 0x1F DUP4 ADD SLT PUSH2 0x1629 JUMPI PUSH2 0x1628 PUSH2 0x1584 JUMP JUMPDEST JUMPDEST PUSH1 0x2 PUSH2 0x1636 DUP5 DUP3 DUP6 PUSH2 0x15B4 JUMP JUMPDEST SWAP2 POP POP SWAP3 SWAP2 POP POP JUMP JUMPDEST PUSH1 0x0 PUSH1 0x80 DUP3 DUP5 SUB SLT ISZERO PUSH2 0x1655 JUMPI PUSH2 0x1654 PUSH2 0x14A3 JUMP JUMPDEST JUMPDEST PUSH2 0x165F PUSH1 0x40 PUSH2 0x1519 JUMP JUMPDEST SWAP1 POP PUSH1 0x0 PUSH2 0x166F DUP5 DUP3 DUP6 ADD PUSH2 0x1614 JUMP JUMPDEST PUSH1 0x0 DUP4 ADD MSTORE POP PUSH1 0x40 PUSH2 0x1683 DUP5 DUP3 DUP6 ADD PUSH2 0x1614 JUMP JUMPDEST PUSH1 0x20 DUP4 ADD MSTORE POP SWAP3 SWAP2 POP POP JUMP JUMPDEST PUSH1 0x0 PUSH2 0x100 DUP3 DUP5 SUB SLT ISZERO PUSH2 0x16A6 JUMPI PUSH2 0x16A5 PUSH2 0x14A3 JUMP JUMPDEST JUMPDEST PUSH2 0x16B0 PUSH1 0x60 PUSH2 0x1519 JUMP JUMPDEST SWAP1 POP PUSH1 0x0 PUSH2 0x16C0 DUP5 DUP3 DUP6 ADD PUSH2 0x1534 JUMP JUMPDEST PUSH1 0x0 DUP4 ADD MSTORE POP PUSH1 0x40 PUSH2 0x16D4 DUP5 DUP3 DUP6 ADD PUSH2 0x163F JUMP JUMPDEST PUSH1 0x20 DUP4 ADD MSTORE POP PUSH1 0xC0 PUSH2 0x16E8 DUP5 DUP3 DUP6 ADD PUSH2 0x1534 JUMP JUMPDEST PUSH1 0x40 DUP4 ADD MSTORE POP SWAP3 SWAP2 POP POP JUMP JUMPDEST PUSH1 0x0 PUSH2 0x100 DUP3 DUP5 SUB SLT ISZERO PUSH2 0x170B JUMPI PUSH2 0x170A PUSH2 0x1432 JUMP JUMPDEST JUMPDEST PUSH1 0x0 PUSH2 0x1719 DUP5 DUP3 DUP6 ADD PUSH2 0x168F JUMP JUMPDEST SWAP2 POP POP SWAP3 SWAP2 POP POP JUMP JUMPDEST PUSH32 0x4E487B7100000000000000000000000000000000000000000000000000000000 PUSH1 0x0 MSTORE PUSH1 0x11 PUSH1 0x4 MSTORE PUSH1 0x24 PUSH1 0x0 REVERT JUMPDEST PUSH1 0x0 PUSH2 0x175C DUP3 PUSH2 0x13F4 JUMP JUMPDEST SWAP2 POP PUSH2 0x1767 DUP4 PUSH2 0x13F4 JUMP JUMPDEST SWAP3 POP DUP3 DUP3 MUL PUSH2 0x1775 DUP2 PUSH2 0x13F4 JUMP JUMPDEST SWAP2 POP DUP3 DUP3 DIV DUP5 EQ DUP4 ISZERO OR PUSH2 0x178C JUMPI PUSH2 0x178B PUSH2 0x1722 JUMP JUMPDEST JUMPDEST POP SWAP3 SWAP2 POP POP JUMP JUMPDEST PUSH32 0x4E487B7100000000000000000000000000000000000000000000000000000000 PUSH1 0x0 MSTORE PUSH1 0x12 PUSH1 0x4 MSTORE PUSH1 0x24 PUSH1 0x0 REVERT JUMPDEST PUSH1 0x0 PUSH2 0x17CD DUP3 PUSH2 0x13F4 JUMP JUMPDEST SWAP2 POP PUSH2 0x17D8 DUP4 PUSH2 0x13F4 JUMP JUMPDEST SWAP3 POP DUP3 PUSH2 0x17E8 JUMPI PUSH2 0x17E7 PUSH2 0x1793 JUMP JUMPDEST JUMPDEST DUP3 DUP3 DIV SWAP1 POP SWAP3 SWAP2 POP POP JUMP JUMPDEST PUSH32 0x4E487B7100000000000000000000000000000000000000000000000000000000 PUSH1 0x0 MSTORE PUSH1 0x32 PUSH1 0x4 MSTORE PUSH1 0x24 PUSH1 0x0 REVERT JUMPDEST PUSH1 0x0 PUSH2 0x182D DUP3 PUSH2 0x13F4 JUMP JUMPDEST SWAP2 POP PUSH2 0x1838 DUP4 PUSH2 0x13F4 JUMP JUMPDEST SWAP3 POP DUP3 DUP3 SUB SWAP1 POP DUP2 DUP2 GT ISZERO PUSH2 0x1850 JUMPI PUSH2 0x184F PUSH2 0x1722 JUMP JUMPDEST JUMPDEST SWAP3 SWAP2 POP POP JUMP JUMPDEST PUSH1 0x0 PUSH2 0x1861 DUP3 PUSH2 0x13F4 JUMP JUMPDEST SWAP2 POP PUSH32 0xFFFFFFFFFFFFFFFFFFFFFFFFFFFFFFFFFFFFFFFFFFFFFFFFFFFFFFFFFFFFFFFF DUP3 SUB PUSH2 0x1893 JUMPI PUSH2 0x1892 PUSH2 0x1722 JUMP JUMPDEST JUMPDEST PUSH1 0x1 DUP3 ADD SWAP1 POP SWAP2 SWAP1 POP JUMP JUMPDEST PUSH1 0x0 DUP3 DUP3 MSTORE PUSH1 0x20 DUP3 ADD SWAP1 POP SWAP3 SWAP2 POP POP JUMP JUMPDEST PUSH32 0x4E6F7420696E20736561736F6E00000000000000000000000000000000000000 PUSH1 0x0 DUP3 ADD MSTORE POP JUMP JUMPDEST PUSH1 0x0 PUSH2 0x18E5 PUSH1 0xD DUP4 PUSH2 0x189E JUMP JUMPDEST SWAP2 POP PUSH2 0x18F0 DUP3 PUSH2 0x18AF JUMP JUMPDEST PUSH1 0x20 DUP3 ADD SWAP1 POP SWAP2 SWAP1 POP JUMP JUMPDEST PUSH1 0x0 PUSH1 0x20 DUP3 ADD SWAP1 POP DUP2 DUP2 SUB PUSH1 0x0 DUP4 ADD MSTORE PUSH2 0x1914 DUP2 PUSH2 0x18D8 JUMP JUMPDEST SWAP1 POP SWAP2 SWAP1 POP JUMP JUMPDEST PUSH32 0x4661696C6564205A4B5000000000000000000000000000000000000000000000 PUSH1 0x0 DUP3 ADD MSTORE POP JUMP JUMPDEST PUSH1 0x0 PUSH2 0x1951 PUSH1 0xA DUP4 PUSH2 0x189E JUMP JUMPDEST SWAP2 POP PUSH2 0x195C DUP3 PUSH2 0x191B JUMP JUMPDEST PUSH1 0x20 DUP3 ADD SWAP1 POP SWAP2 SWAP1 POP JUMP JUMPDEST PUSH1 0x0 PUSH1 0x20 DUP3 ADD SWAP1 POP DUP2 DUP2 SUB PUSH1 0x0 DUP4 ADD MSTORE PUSH2 0x1980 DUP2 PUSH2 0x1944 JUMP JUMPDEST SWAP1 POP SWAP2 SWAP1 POP JUMP JUMPDEST PUSH1 0x0 PUSH20 0xFFFFFFFFFFFFFFFFFFFFFFFFFFFFFFFFFFFFFFFF DUP3 AND SWAP1 POP SWAP2 SWAP1 POP JUMP JUMPDEST PUSH1 0x0 PUSH2 0x19B2 DUP3 PUSH2 0x1987 JUMP JUMPDEST SWAP1 POP SWAP2 SWAP1 POP JUMP JUMPDEST PUSH2 0x19C2 DUP2 PUSH2 0x19A7 JUMP JUMPDEST DUP3 MSTORE POP POP JUMP JUMPDEST PUSH1 0x0 PUSH4 0xFFFFFFFF DUP3 AND SWAP1 POP SWAP2 SWAP1 POP JUMP JUMPDEST PUSH2 0x19E1 DUP2 PUSH2 0x19C8 JUMP JUMPDEST DUP3 MSTORE POP POP JUMP JUMPDEST PUSH1 0x0 PUSH1 0x40 DUP3 ADD SWAP1 POP PUSH2 0x19FC PUSH1 0x0 DUP4 ADD DUP6 PUSH2 0x19B9 JUMP JUMPDEST PUSH2 0x1A09 PUSH1 0x20 DUP4 ADD DUP5 PUSH2 0x19D8 JUMP JUMPDEST SWAP4 SWAP3 POP POP POP JUMP JUMPDEST PUSH1 0x0 PUSH2 0x1A1B DUP3 PUSH2 0x19C8 JUMP JUMPDEST SWAP2 POP PUSH4 0xFFFFFFFF DUP3 SUB PUSH2 0x1A31 JUMPI PUSH2 0x1A30 PUSH2 0x1722 JUMP JUMPDEST JUMPDEST PUSH1 0x1 DUP3 ADD SWAP1 POP SWAP2 SWAP1 POP JUMP JUMPDEST PUSH1 0x0 PUSH2 0x1A47 DUP3 PUSH2 0x13F4 JUMP JUMPDEST SWAP2 POP PUSH2 0x1A52 DUP4 PUSH2 0x13F4 JUMP JUMPDEST SWAP3 POP DUP3 DUP3 ADD SWAP1 POP DUP1 DUP3 GT ISZERO PUSH2 0x1A6A JUMPI PUSH2 0x1A69 PUSH2 0x1722 JUMP JUMPDEST JUMPDEST SWAP3 SWAP2 POP POP JUMP JUMPDEST PUSH1 0x0 PUSH2 0x1A7B DUP3 PUSH2 0x13F4 JUMP JUMPDEST SWAP2 POP PUSH2 0x1A86 DUP4 PUSH2 0x13F4 JUMP JUMPDEST SWAP3 POP DUP3 PUSH2 0x1A96 JUMPI PUSH2 0x1A95 PUSH2 0x1793 JUMP JUMPDEST JUMPDEST DUP3 DUP3 MOD SWAP1 POP SWAP3 SWAP2 POP POP JUMP INVALID LOG2 PUSH5 0x6970667358 0x22 SLT KECCAK256 0xD4 MSIZE 0xBF 0xDC 0xC PUSH16 0x978118533E2D7E41603A8D57D14C6FAE EXTCODESIZE DUP4 0xDD ORIGIN NUMBER 0x27 PUSH6 0x6B1EF464736F PUSH13 0x63430008120033000000000000 "
		},
		"gasEstimates": {
			"creation": {
				"codeDepositCost": "1374200",
				"executionCost": "25697",
				"totalCost": "1399897"
			},
			"external": {
				"endSeason()": "infinite",
				"prizeRatio()": "307",
				"seasonPrize()": "6810",
				"startSeason(uint256,uint256)": "infinite",
				"verifyWinning(((uint256,uint256),(uint256[2],uint256[2]),(uint256,uint256)))": "infinite"
			},
			"internal": {
				"verify(uint256[] memory,struct Verifier.Proof memory)": "infinite",
				"verifyingKey()": "infinite"
			}
		},
		"methodIdentifiers": {
			"endSeason()": "3dcdb672",
			"prizeRatio()": "018db78e",
			"seasonPrize()": "a1d5ecaf",
			"startSeason(uint256,uint256)": "25c7fcdf",
			"verifyWinning(((uint256,uint256),(uint256[2],uint256[2]),(uint256,uint256)))": "d9e78169"
		}
	},
	"abi": [
		{
			"anonymous": false,
			"inputs": [
				{
					"indexed": false,
					"internalType": "address",
					"name": "winner",
					"type": "address"
				},
				{
					"indexed": false,
					"internalType": "uint32",
					"name": "place",
					"type": "uint32"
				}
			],
			"name": "verifiedWinner",
			"type": "event"
		},
		{
			"inputs": [],
			"name": "endSeason",
			"outputs": [],
			"stateMutability": "nonpayable",
			"type": "function"
		},
		{
			"inputs": [],
			"name": "prizeRatio",
			"outputs": [
				{
					"internalType": "uint256",
					"name": "",
					"type": "uint256"
				}
			],
			"stateMutability": "view",
			"type": "function"
		},
		{
			"inputs": [],
			"name": "seasonPrize",
			"outputs": [
				{
					"internalType": "uint256",
					"name": "",
					"type": "uint256"
				}
			],
			"stateMutability": "view",
			"type": "function"
		},
		{
			"inputs": [
				{
					"internalType": "uint256",
					"name": "_answer",
					"type": "uint256"
				},
				{
					"internalType": "uint256",
					"name": "_prizeCap",
					"type": "uint256"
				}
			],
			"name": "startSeason",
			"outputs": [],
			"stateMutability": "nonpayable",
			"type": "function"
		},
		{
			"inputs": [
				{
					"components": [
						{
							"components": [
								{
									"internalType": "uint256",
									"name": "X",
									"type": "uint256"
								},
								{
									"internalType": "uint256",
									"name": "Y",
									"type": "uint256"
								}
							],
							"internalType": "struct Pairing.G1Point",
							"name": "a",
							"type": "tuple"
						},
						{
							"components": [
								{
									"internalType": "uint256[2]",
									"name": "X",
									"type": "uint256[2]"
								},
								{
									"internalType": "uint256[2]",
									"name": "Y",
									"type": "uint256[2]"
								}
							],
							"internalType": "struct Pairing.G2Point",
							"name": "b",
							"type": "tuple"
						},
						{
							"components": [
								{
									"internalType": "uint256",
									"name": "X",
									"type": "uint256"
								},
								{
									"internalType": "uint256",
									"name": "Y",
									"type": "uint256"
								}
							],
							"internalType": "struct Pairing.G1Point",
							"name": "c",
							"type": "tuple"
						}
					],
					"internalType": "struct Verifier.Proof",
					"name": "proof",
					"type": "tuple"
				}
			],
			"name": "verifyWinning",
			"outputs": [],
			"stateMutability": "nonpayable",
			"type": "function"
		}
	]
}